:100000000C94DE000C9406010C9406010C9406017D
:100010000C9406010C9406010C9406010C94060144
:100020000C9406010C9406010C948A050C94FC05B2
:100030000C9406010C9406010C9406010C94060124
:100040000C9406010C9406010C9406010C94060114
:100050000C9406010C9406010C9406010C942C08D7
:100060000C9406010C9406010C9406010C940601F4
:100070000C9406010C9406010C9406010C940601E4
:100080000C9406010C9406010C9406010C940601D4
:100090000C9406010C9406010C9406010C940601C4
:1000A0000C9406010C9406010C94060132013501F2
:1000B000240128012C0156015601560139013D0148
:1000C000410147014B01560151010000000024008D
:1000D00027002A002D003000080B00020202010058
:1000E000090400000102020000052400100105249B
:1000F000010101042402060524060001070581030D
:1001000010004009040100020A0000000705020275
:1001100040000007058302400000040309041201A7
:100120000002EF0201404123368000010102030179
:1001300041726475696E6F204C4C43004172647566
:10014000696E6F204C656F6E6172646F0000000015
:100150000200090F0000030401000C000000000071
:100160000000000000000000000000000408020180
:1001700010408040102040804080080204018040F0
:1001800020100201108010204040200000000025B7
:100190000028002B002E0031000404040404030492
:1001A0000502020202040302020202060606060615
:1001B00006040402020204047608390A11241FBE50
:1001C000CFEFDAE0DEBFCDBF11E0A0E0B1E0ECE1BF
:1001D000F7E102C005900D92AA33B107D9F721E0EB
:1001E000AAE3B1E001C01D92A23CB207E1F710E022
:1001F000CDEDD0E004C02197FE010E94490ACC3D1C
:10020000D107C9F70E94ED080C94810B0C940000F3
:1002100090E0FC01E35BFE4F4491FC01E459FE4F8A
:100220002491FC01E756FE4F8491882309F44DC0C8
:100230004423E1F150E0FA013197EF30F105B0F5D8
:10024000EA5AFF4F0C94490A909180009F7707C0AB
:10025000909180009F7D03C090918000977F909344
:10026000800024C094B59F7702C094B59F7D94BD53
:100270001DC0909190009F7707C0909190009F7D46
:1002800003C090919000977F909390000FC0909141
:10029000C0009F7703C09091C0009F7D9093C000E5
:1002A00005C09091C200977F9093C200E82FF0E0C4
:1002B000EE0FFF1FE557FE4FA591B4918FB7F8944D
:1002C000EC9120952E232C938FBF0895CF92DF922F
:1002D000EF92FF920F931F932091AB013091AC01ED
:1002E000232B09F447C06C01EE24FF24FC2D072FBB
:1002F000182F292F3327E02F562F4091B001442388
:1003000061F0C49E60011124FD2D049F8001112421
:10031000E12F649F90011124532FA091B601B09159
:10032000B3012091B1013091B201AB1789F0C92E10
:10033000DD24EE24FF24C9018A0F911DDC01442332
:1003400029F0C49EB0011124672F01C06C2D6C935D
:100350008091B301D901A80FB11DFC938091B40124
:10036000D901A80FB11DEC938091B501F901E80FF7
:10037000F11D50831F910F91FF90EF90DF90CF9070
:100380000895FC0180915801811103C08FEF9FEF08
:1003900008959FB7F89482E08093E9002091F200DD
:1003A00030E01216130614F421E030E02115310577
:1003B00059F0289884E6809357018091F10080835A
:1003C0008091F200882319F09FBFC90108958BE640
:1003D0008093E800F9CF2FB7F89483E08093E90089
:1003E0009091E800892F807295FF04C09091F200EF
:1003F00080E4891B2FBF089580914F0181110DC0AA
:1004000082E080934B0184E080934C0110924E0176
:1004100010924D0181E080934F018BE491E00895AB
:100420004091450150914601209143013091440192
:1004300042175307B4F49091E8009570E1F390915E
:10044000E80092FD19C08093F100809145019091E0
:10045000460101968F739927892B19F48EEF8093AB
:10046000E8008091450190914601019690934601E4
:100470008093450181E0089580E00895CF92DF9256
:10048000EF92FF920F931F93CF93DF931F92CDB7FD
:10049000DEB7182F062FE42E862F880F8E5F9983E4
:1004A0000E94100283E00E941002F12EC12E998159
:1004B000D92E8C2D8F19801798F4F601E7FE02C013
:1004C000849101C080810E941002182F80E00E9458
:1004D00010028123FFEFCF1ADF0A8111EACF01C09A
:1004E00081E00F90DF91CF911F910F91FF90EF90DE
:1004F000DF90CF900895DF92EF92FF920F931F93BA
:10050000CF93DF93D82E8A017B01E40EF51EEB0119
:10051000CE15DF0571F0D7FE03C0FE01849101C046
:1005200088810E94100221968111F2CF8FEF9FEFF8
:1005300001C0C801DF91CF911F910F91FF90EF9003
:10054000DF9008950F931F93CF93DF931F92CDB742
:10055000DEB782E0898342E450E068ED70E080E835
:100560000E947B020E94FC01DC0112960D911C91FD
:1005700013970115110569F0D801ED91FC910280E6
:10058000F381E02DBE016F5F7F4FC801099597FF92
:1005900007C089810F90DF91CF911F910F9108952E
:1005A000F80100851185E5CF615030F02091F10010
:1005B000FC0120830196F8CF289884E680935701A8
:1005C0000895CF92DF92EF92FF920F931F93CF93F4
:1005D000DF936C017A018B01C0E0D0E0CE15DF051E
:1005E00089F0D8016D918D01D601ED91FC910190BA
:1005F000F081E02DC6010995892B11F47E0102C01E
:100600002196ECCFC701DF91CF911F910F91FF9001
:10061000EF90DF90CF900895CF93DF931F92CDB7E7
:10062000DEB76983DC01ED91FC910280F381E02D5E
:1006300041E050E0BE016F5F7F4F09950F90DF9161
:10064000CF91089583E08093E9008091F2008823A0
:1006500019F08AE38093E80008950E94EB0190E08E
:100660000895CF93DF931F92CDB7DEB7FC01848549
:10067000958597FD05C02FEF3FEF358724870BC089
:10068000CE0101960E94C101019719F4898190E081
:1006900002C08FEF9FEF0F90DF91CF9108950F93DE
:1006A0001F93CF93DF931F92CDB7DEB78C01FC0170
:1006B0008485958597FF0EC0CE0101960E94C101E9
:1006C000019719F4298130E002C02FEF3FEFF801C4
:1006D00035872487F801848595850F90DF91CF9128
:1006E0001F910F910895FC018485958597FD0BC09E
:1006F0009FB7F89482E08093E9008091F2009FBF59
:1007000090E0019608959FB7F89482E08093E90005
:100710008091F2009FBF90E00895089580E090E0FE
:100720000895CF93DF9390E0FC01E459FE4F2491AC
:10073000FC01E756FE4F8491882361F190E0880F19
:10074000991FFC01E653FF4FC591D491FC01E55779
:10075000FE4FA591B491611109C09FB7F8948881AB
:10076000209582238883EC912E230BC0623061F4A4
:100770009FB7F8943881822F809583238883EC91EA
:100780002E2B2C939FBF06C08FB7F894E8812E2B99
:1007900028838FBFDF91CF9108953FB7F894809160
:1007A0003F0190914001A0914101B091420126B5D5
:1007B000A89B05C02F3F19F00196A11DB11D3FBF99
:1007C000BA2FA92F982F8827820F911DA11DB11D27
:1007D000BC01CD0142E0660F771F881F991F4A9523
:1007E000D1F708950F931F93CF93DF93CDB7DEB763
:1007F00029970FB6F894DEBF0FBECDBF8091B1012F
:100800009091B201892B09F4A1C00E94CD030091FF
:10081000B7011091B8012091B9013091BA01DC0102
:10082000CB01801B910BA20BB30BC297A105B105A5
:1008300060F3F8948091AD019091AE019A83898321
:10084000E091B101F091B201DF01119680818987B9
:100850009091A901E091BB01F091BC018091BD0193
:10086000992309F42EC09081982B988790818095C8
:1008700089238F838F818C8388E08B8358856F8158
:1008800049853B812C8189819A81508347FD252FA1
:100890003A952083262F39F0441F00C00000608362
:1008A000000000C0F2CF38E04D9160830000019756
:1008B00061F7F093BC01E093BB0149873B832C8334
:1008C00038C09081982B98879081809589238F8359
:1008D0008F818E8388E08D8358856F8149853D8126
:1008E0002E8189819A81508347FD252F00C000C049
:1008F000208300C000C000C000C000C060830000B2
:10090000262F3A9541F0441F000000C000C000C0EF
:1009100000C000C0E8CF38E04D9100C0608300C047
:10092000019709F7F093BC01E093BB0149873D8330
:100930002E839A83898378940E94CD036093B701B4
:100940007093B8018093B9019093BA0129960FB6BC
:10095000F894DEBF0FBECDBFDF91CF911F910F91F5
:1009600008958F929F92AF92BF92CF92DF92EF92B3
:10097000FF926B017C010E94CD034B015C01C1140D
:10098000D104E104F104F1F00E94CD03DC01CB01BC
:1009900088199909AA09BB09883E9340A105B105A8
:1009A00070F321E0C21AD108E108F10888EE880E40
:1009B00083E0981EA11CB11CC114D104E104F10410
:1009C00019F7DDCFFF90EF90DF90CF90BF90AF9001
:1009D0009F908F9008958F929F92AF92BF92CF92E7
:1009E000DF92EF92FF920F931F93CF93DF935C01FF
:1009F0006B017A0180910B01882309F45BC080911F
:100A00005801882309F456C08091490180FF05C030
:100A10008091E00082608093E000E70110E00AEF3F
:100A200083E0882E9AE3992E2097D9F10E94EB015A
:100A300081110AC0015009F43DC061E070E080E01E
:100A400090E00E94B104F0CF282F30E0C217D30706
:100A50000CF48C2F4FB7F8948092E9009091E80045
:100A600095FF1DC0282F30E0C21BD30BF601982F35
:100A7000915020F081918093F100FACFC20ED31EE5
:100A8000112319F09092E80009C08091E80085FDDB
:100A900006C09092E80011E0209709F010E04FBFE7
:100AA000C3CF1111C3CF5D9884E6809347011E1414
:100AB0001F0444F081E090E0F5019383828380E09D
:100AC00090E001C0C701DF91CF911F910F91FF907E
:100AD000EF90DF90CF90BF90AF909F908F90089550
:100AE000BC01009791F0FC0101900020E9F73197DB
:100AF000AF01481B590BE0915901F0915A01028056
:100B0000F381E02D89E591E0099480E090E008957B
:100B10000E947C0B1F920F920FB60F9211248F939D
:100B20009F938091E1009091E100937F9093E10089
:100B300083FF0FC01092E90091E09093EB001092B8
:100B4000EC0092E39093ED001092580198E090939E
:100B5000F00082FF20C093E09093E9009091F200B2
:100B6000992319F09AE39093E80090914701992313
:100B700039F090914701915090934701992389F161
:100B800090915701992339F090915701915090938A
:100B90005701992341F184FF10C08091E2008E7EBD
:100BA00081608093E2008091E1008F7E8093E1007C
:100BB000809149018E7E806111C080FF16C08091B6
:100BC000E2008E7E80618093E2008091E1008E7E63
:100BD0008093E100809149018E7E8160809349017C
:100BE00004C05D9ACDCF289AD6CF9F918F910F9058
:100BF0000FBE0F901F9018951F920F920FB60F9275
:100C00001124CF92DF92EF92FF920F931F932F93B5
:100C10003F934F935F936F937F938F939F93AF9384
:100C2000BF93EF93FF93CF93DF93CDB7DEB76C976E
:100C3000DEBFCDBF1092E9008091E80083FFEDC1D7
:100C400068E0CE0145960E94D40282EF8093E800CE
:100C50008D8987FF05C09091E80090FFFCCF03C00D
:100C60009EEF9093E800982F907609F0C6C09E8979
:100C70002F89188D91110CC0803829F480914A0178
:100C80008093F10002C01092F1001092F10048C16F
:100C9000422F50E0512B913051F4811141C141302C
:100CA000510509F03DC180914A018D7F0BC0933001
:100CB00061F4811135C14130510509F031C1809194
:100CC0004A01826080934A012BC1953041F48091A2
:100CD000E80080FFFCCF20682093E30021C196301C
:100CE00009F05FC0EB8CFC8C1092E9001092460179
:100CF00010924501123091F5109244011092430177
:100D00000E94A20299E0BE016F5F7F4FDB01E92FD5
:100D10001D92EA95E9F799831A8391E09E8390EA00
:100D200098879AEF99872091450130914601275F76
:100D30003F4F3C832B838D831092E9001092460134
:100D400010924501F0924401E092430149E050E0E5
:100D500080E00E947B020E94A202E2C0F092440165
:100D6000E09243010E94FC01DC011296ED90FC90A0
:100D70001397E114F10409F4C0C0D701ED91FC917F
:100D80000480F581E02DBE016B5E7F4FC7010995A0
:100D9000009719F00CF0C4C0C7C0F701E084F184DB
:100DA000E8CF973009F4C0C0983021F481E08093F7
:100DB000F100B6C0993009F0B3C0837009F0B4C037
:100DC000E3E1F1E081E021E036E39081992361F0F5
:100DD0008093E9002093EB0091919093EC00309385
:100DE000ED008F5F873089F78EE78093EA001092DD
:100DF000EA008F898093580193C08B8D9C8D10924F
:100E0000E9001092460110924501909344018093AD
:100E10004301898D811156C08E899D89913A59F47B
:100E2000813209F081C047E050E064E071E080E089
:100E30000E947B0275C0913209F076C0833289F43A
:100E4000888D90E0982F88272F89822BA0E0B0E032
:100E50008093000190930101A0930201B0930301DC
:100E60005FC0803269F48091E80082FFFCCF67E0C8
:100E700084E091E00E94D4028BEF8093E80006C0EA
:100E8000823209F04DC08F8980930B018091480117
:100E9000882319F0EEEFFAE002C0E0E0F8E080917C
:100EA000040190910501A0910601B0910701803BDA
:100EB0009440A105B10509F07BC080910B0180FF32
:100EC00093C076C00E94FC01DC0112960D911C912A
:100ED00013970115110541F1D801ED91FC91019095
:100EE000F081E02DBE016B5E7F4FC8010995811135
:100EF00017C0F80100851185ECCF113009F44EC000
:100F0000133091F48F89882309F445C0823081F42D
:100F100040E860E18CE391E00E943E02882321F0EA
:100F20008EEF8093E80079C081E28093EB0075C07A
:100F3000813029F440E86BE080E391E0EDCF83302D
:100F400099F70E94FC01DC011296ED90FC9013973A
:100F50008E010F5F1F4F6801E114F10479F0D70192
:100F6000ED91FC910680F781E02DB801C70109954C
:100F7000080F111DF701E084F184EECFD8011C9217
:100F8000F60101900020E9F73197BF016C197D0946
:100F900040E0C601C1CF6AE171E002C06EE171E0DC
:100FA0006115710509F2FB01449150E080E840CFE2
:100FB0000FB6F894A89580916000886180936000D6
:100FC000109260000FBEA895EE3F2AE0F20739F0BC
:100FD0008091FE0A9091FF0A91838083A1CF1092A5
:100FE000FF0A1092FE0A9CCFEE3F8AE0F80731F02C
:100FF000808191819093FF0A8093FE0A87E797E7AB
:10100000918380839BE088E10FB6F894A895809344
:1010100060000FBE9093600083CF6C960FB6F8947B
:10102000DEBF0FBECDBFDF91CF91FF91EF91BF919A
:10103000AF919F918F917F916F915F914F913F9170
:101040002F911F910F91FF90EF90DF90CF900F9015
:101050000FBE0F901F9018951F920F920FB60F9210
:1010600011242F933F938F939F93AF93BF938091BE
:101070003B0190913C01A0913D01B0913E01309126
:101080003A0123E0230F2D3720F40196A11DB11D55
:1010900005C026E8230F0296A11DB11D20933A0139
:1010A00080933B0190933C01A0933D01B0933E019E
:1010B00080913F0190914001A0914101B091420186
:1010C0000196A11DB11D80933F0190934001A09313
:1010D0004101B0934201BF91AF919F918F913F9198
:1010E0002F910F900FBE0F901F90189510925C01DA
:1010F00010925B0188EE93E0A0E0B0E080935D0188
:1011000090935E01A0935F01B09360018DE191E047
:1011100090935A01809359018FEF9FEF909366014E
:10112000809365011092AA011092B0011092B7014C
:101130001092B8011092B9011092BA0181E0809327
:10114000B6018093B3011092B40192E09093B5017F
:101150008093A90183E090E09093AE018093AD016C
:101160000E944F0A9093B2018093B101009759F009
:10117000FC0110821182128281E090E09093AC0118
:101180008093AB0108C01092AE011092AD01109295
:10119000AC011092AB0184E08093AF018091AA0171
:1011A000882339F061E084E00E94910384E00E948A
:1011B0000801EDE9F1E0E491F0E0EE0FFF1FE557E3
:1011C000FE4F859194919093BC018093BB01E0E721
:1011D000F1E0E491E093BD010895789484B58260D4
:1011E00084BD84B5816084BD85B5826085BD85B5CB
:1011F000816085BD80916E00816080936E00109249
:1012000081008091810082608093810080918100C3
:101210008160809381008091800081608093800054
:101220008091910082608093910080919100816013
:1012300080939100809190008160809390008091D4
:10124000C10084608093C1008091C100826080935E
:10125000C1008091C10081608093C1008091C30072
:1012600081608093C3008091C00082608093C00041
:101270008091C20081608093C20080917A00846076
:1012800080937A0080917A00826080937A008091C6
:101290007A00816080937A0080917A0080688093E0
:1012A0007A001092580110924A01109249018091DF
:1012B000D70081608093D70080EA8093D80089B5F9
:1012C000806189BD89B5826089BD09B400FEFDCF0A
:1012D00061E070E080E090E00E94B1048091D8006D
:1012E0008F7C80618093D8008091E000807F809324
:1012F000E0008091E1008E7E8093E1008DE080939C
:10130000E200559A209AEEEFFFE7859194918B3F8A
:101310009C4D19F481E08093480180E8809361003E
:101320001092610091E895BF85BF8FEF9FEF90937A
:101330006601809365018091AF0187FD07C061E080
:101340000E9491038091AF010E94080181E0809387
:10135000AA0160ED77E080E090E00E94B1048BE2AA
:1013600091E00E94700581E391E00E947005C0E069
:10137000D0E0C12CD12C76019E2D8D2D7C2D6627A1
:101380000E9466010E94F2036AE070E080E090E053
:101390000E94B10483E0C80ED11CE11CF11C2FEFA8
:1013A000C216D104E104F10439F7C12CD12C760125
:1013B000C601772766270E9466010E94F2036AE051
:1013C00070E080E090E00E94B10483E0C80ED11C80
:1013D000E11CF11C2FEFC216D104E104F10441F726
:1013E000C12CD12C7601C701B6010E9466010E9472
:1013F000F2036AE070E080E090E00E94B10483E0D4
:10140000C80ED11CE11CF11C2FEFC216D104E1045F
:10141000F10449F7C12CD12C7601D60199278827F0
:10142000BC01CD016C297D298E299F290E9466016E
:101430000E94F2036AE070E080E090E00E94B10454
:1014400083E0C80ED11CE11CF11C2FEFC216D104A1
:10145000E104F10411F784E391E00E94700581E357
:1014600091E00E947005209709F483CF0E9400004C
:1014700080CF8091B1019091B201009711F00E944C
:10148000E40A8091AF0187FD03C060E00C949103F2
:101490000895EE0FFF1F0590F491E02D0994CF936E
:1014A000DF938230910510F482E090E0E091C0017A
:1014B000F091C10120E030E0C0E0D0E0309711F1C0
:1014C0004081518148175907C0F04817590761F406
:1014D00082819381209719F09B838A832BC09093FC
:1014E000C1018093C00126C02115310519F04217B2
:1014F000530718F49A01BE01DF01EF010280F38166
:10150000E02DDCCF2115310509F1281B390B2430E2
:10151000310590F412968D919C9113976115710588
:1015200021F0FB019383828304C09093C1018093D7
:10153000C001FD01329644C0FD01E20FF31F81930B
:101540009193225031092D933C933AC02091BE01D2
:101550003091BF01232B41F420910E0130910F01F6
:101560003093BF012093BE0120910C0130910D01F9
:101570002115310541F42DB73EB74091100150912E
:101580001101241B350BE091BE01F091BF01E21760
:10159000F307A0F42E1B3F0B2817390778F0AC0196
:1015A0004E5F5F4F2417350748F04E0F5F1F509373
:1015B000BF014093BE018193919302C0E0E0F0E04F
:1015C000CF01DF91CF9108950F931F93CF93DF93B6
:1015D000009709F48CC0FC013297138212820091AB
:1015E000C0011091C1010115110581F420813181E3
:1015F000820F931F2091BE013091BF012817390738
:1016000079F5F093BF01E093BE0171C0D80140E0CD
:1016100050E0AE17BF0750F412962D913C911397EE
:10162000AD012115310509F1D901F3CF9D01DA0191
:101630003383228360817181860F971F82179307FE
:1016400069F4EC0128813981260F371F2E5F3F4F47
:10165000318320838A819B8193838283452B29F464
:10166000F093C101E093C00142C01396FC93EE9346
:101670001297ED01499159919E01240F351FE217F0
:10168000F30771F480819181840F951F0296119662
:101690009C938E938281938113969C938E93129741
:1016A000E0E0F0E0D80112968D919C91139700979D
:1016B00019F0F8018C01F6CF8D919C9198012E5F65
:1016C0003F4F820F931F2091BE013091BF01281719
:1016D000390769F4309729F41092C1011092C001C2
:1016E00002C0138212821093BF010093BE01DF91EA
:1016F000CF911F910F91089581E090E0F8940C94A0
:10170000810B10E0CDEDD0E004C0FE010E94490A3B
:0C1710002196CE3DD107C9F7F894FFCF19
:10171C00FFFFFFFF00E10000000000000000C2011D
:10172C00800000C18081000000000000000C03EB71
:10173C00042D032203730331034F03526561647953
:0A174C00000D0A004E6578740000DD
:00000001FF
